{
  "_format": "hh-sol-artifact-1",
  "contractName": "MetaBoard",
  "sourceName": "contracts/MetaBoard.sol",
  "abi": [
    {
      "inputs": [
        {
          "internalType": "bytes",
          "name": "unmeta",
          "type": "bytes"
        }
      ],
      "name": "NotRainMetaV1",
      "type": "error"
    },
    {
      "anonymous": false,
      "inputs": [
        {
          "indexed": false,
          "internalType": "address",
          "name": "sender",
          "type": "address"
        },
        {
          "indexed": false,
          "internalType": "uint256",
          "name": "subject",
          "type": "uint256"
        },
        {
          "indexed": false,
          "internalType": "bytes",
          "name": "meta",
          "type": "bytes"
        }
      ],
      "name": "MetaV1",
      "type": "event"
    },
    {
      "inputs": [
        {
          "internalType": "uint256",
          "name": "subject_",
          "type": "uint256"
        },
        {
          "internalType": "bytes",
          "name": "meta_",
          "type": "bytes"
        }
      ],
      "name": "emitMeta",
      "outputs": [],
      "stateMutability": "nonpayable",
      "type": "function"
    }
  ],
  "bytecode": "0x608060405234801561001057600080fd5b50610444806100206000396000f3fe608060405234801561001057600080fd5b506004361061002b5760003560e01c8063d284820b14610030575b600080fd5b61004a60048036038101906100459190610230565b61004c565b005b61009982828080601f016020809104026020016040519081016040528093929190818152602001838380828437600081840152601f19601f820116905080830192505050505050506100db565b7fbea766d03fa1efd3f81cc8634d08320bc62bb0ed9234ac59bbaafa5893fb6b13338484846040516100ce949392919061033e565b60405180910390a1505050565b6100e481610128565b61012557806040517f644cc25800000000000000000000000000000000000000000000000000000000815260040161011c91906103ec565b60405180910390fd5b50565b600060088251101561013d5760009050610186565b600067ffffffffffffffff80169050600067ff0a89c674ee787467ffffffffffffffff16905081600885015116905067ff0a89c674ee787467ffffffffffffffff168114925050505b919050565b600080fd5b600080fd5b6000819050919050565b6101a881610195565b81146101b357600080fd5b50565b6000813590506101c58161019f565b92915050565b600080fd5b600080fd5b600080fd5b60008083601f8401126101f0576101ef6101cb565b5b8235905067ffffffffffffffff81111561020d5761020c6101d0565b5b602083019150836001820283011115610229576102286101d5565b5b9250929050565b6000806000604084860312156102495761024861018b565b5b6000610257868287016101b6565b935050602084013567ffffffffffffffff81111561027857610277610190565b5b610284868287016101da565b92509250509250925092565b600073ffffffffffffffffffffffffffffffffffffffff82169050919050565b60006102bb82610290565b9050919050565b6102cb816102b0565b82525050565b6102da81610195565b82525050565b600082825260208201905092915050565b82818337600083830152505050565b6000601f19601f8301169050919050565b600061031d83856102e0565b935061032a8385846102f1565b61033383610300565b840190509392505050565b600060608201905061035360008301876102c2565b61036060208301866102d1565b8181036040830152610373818486610311565b905095945050505050565b600081519050919050565b60005b838110156103a757808201518184015260208101905061038c565b60008484015250505050565b60006103be8261037e565b6103c881856102e0565b93506103d8818560208601610389565b6103e181610300565b840191505092915050565b6000602082019050818103600083015261040681846103b3565b90509291505056fea264697066735822122080f13942d3bc3c274ef85a43fb2e1e34ab5d6a5e3a291d9d91f30865438040a364736f6c63430008120033",
  "linkReferences": {},
  "deployedLinkReferences": {}
}