{
  "abi": [
    {
      "inputs": [
        {
          "internalType": "bytes",
          "name": "unmeta",
          "type": "bytes"
        }
      ],
      "name": "NotRainMetaV1",
      "type": "error"
    },
    {
      "anonymous": false,
      "inputs": [
        {
          "indexed": false,
          "internalType": "address",
          "name": "sender",
          "type": "address"
        },
        {
          "indexed": false,
          "internalType": "bytes",
          "name": "meta",
          "type": "bytes"
        }
      ],
      "name": "MetaV1",
      "type": "event"
    },
    {
      "inputs": [
        {
          "internalType": "bytes",
          "name": "meta_",
          "type": "bytes"
        }
      ],
      "name": "emitMeta",
      "outputs": [],
      "stateMutability": "nonpayable",
      "type": "function"
    }
  ],
  "bytecode": {
    "object": "0x608060405234801561001057600080fd5b506102be806100206000396000f3fe608060405234801561001057600080fd5b506004361061002b5760003560e01c80630fd7cf2314610030575b600080fd5b61004361003e366004610140565b610045565b005b61008482828080601f0160208091040260200160405190810160405280939291908181526020018383808284376000920191909152506100c392505050565b7ffe0d7cdfc02f75938b0ef2d979de3a96348a06852e8d986e03c08c563816fe953383836040516100b7939291906101b2565b60405180910390a15050565b6100cc81610110565b61010d57806040517f644cc258000000000000000000000000000000000000000000000000000000008152600401610104919061021c565b60405180910390fd5b50565b600060088251101561012457506000919050565b506008015167ffffffffffffffff1667ff0a89c674ee78741490565b6000806020838503121561015357600080fd5b823567ffffffffffffffff8082111561016b57600080fd5b818501915085601f83011261017f57600080fd5b81358181111561018e57600080fd5b8660208285010111156101a057600080fd5b60209290920196919550909350505050565b73ffffffffffffffffffffffffffffffffffffffff8416815260406020820152816040820152818360608301376000818301606090810191909152601f9092017fffffffffffffffffffffffffffffffffffffffffffffffffffffffffffffffe016010192915050565b600060208083528351808285015260005b818110156102495785810183015185820160400152820161022d565b5060006040828601015260407fffffffffffffffffffffffffffffffffffffffffffffffffffffffffffffffe0601f830116850101925050509291505056fea2646970667358221220282c7b418a5fac15be7d8bc3258ee7284e26177d22e6cd7f6302efef4e45845e64736f6c63430008100033",
    "linkReferences": {}
  },
  "methodIdentifiers": {
    "emitMeta(bytes)": "0fd7cf23"
  },
  "id": 20
}