{
  "_format": "hh-sol-artifact-1",
  "contractName": "MetaBoard",
  "sourceName": "contracts/MetaBoard.sol",
  "abi": [
    {
      "inputs": [
        {
          "internalType": "bytes",
          "name": "unmeta",
          "type": "bytes"
        }
      ],
      "name": "NotRainMetaV1",
      "type": "error"
    },
    {
      "anonymous": false,
      "inputs": [
        {
          "indexed": false,
          "internalType": "address",
          "name": "sender",
          "type": "address"
        },
        {
          "indexed": false,
          "internalType": "bytes",
          "name": "meta",
          "type": "bytes"
        }
      ],
      "name": "MetaV1",
      "type": "event"
    },
    {
      "inputs": [
        {
          "internalType": "bytes",
          "name": "meta_",
          "type": "bytes"
        }
      ],
      "name": "emitMeta",
      "outputs": [],
      "stateMutability": "nonpayable",
      "type": "function"
    }
  ],
  "bytecode": "0x608060405234801561001057600080fd5b506103db806100206000396000f3fe608060405234801561001057600080fd5b506004361061002b5760003560e01c80630fd7cf2314610030575b600080fd5b61004a600480360381019061004591906101f7565b61004c565b005b61009982828080601f016020809104026020016040519081016040528093929190818152602001838380828437600081840152601f19601f820116905080830192505050505050506100d8565b7ffe0d7cdfc02f75938b0ef2d979de3a96348a06852e8d986e03c08c563816fe953383836040516100cc939291906102e3565b60405180910390a15050565b6100e181610125565b61012257806040517f644cc2580000000000000000000000000000000000000000000000000000000081526004016101199190610383565b60405180910390fd5b50565b600060088251101561013a5760009050610183565b600067ffffffffffffffff80169050600067ff0a89c674ee787467ffffffffffffffff16905081600885015116905067ff0a89c674ee787467ffffffffffffffff168114925050505b919050565b600080fd5b600080fd5b600080fd5b600080fd5b600080fd5b60008083601f8401126101b7576101b6610192565b5b8235905067ffffffffffffffff8111156101d4576101d3610197565b5b6020830191508360018202830111156101f0576101ef61019c565b5b9250929050565b6000806020838503121561020e5761020d610188565b5b600083013567ffffffffffffffff81111561022c5761022b61018d565b5b610238858286016101a1565b92509250509250929050565b600073ffffffffffffffffffffffffffffffffffffffff82169050919050565b600061026f82610244565b9050919050565b61027f81610264565b82525050565b600082825260208201905092915050565b82818337600083830152505050565b6000601f19601f8301169050919050565b60006102c28385610285565b93506102cf838584610296565b6102d8836102a5565b840190509392505050565b60006040820190506102f86000830186610276565b818103602083015261030b8184866102b6565b9050949350505050565b600081519050919050565b60005b8381101561033e578082015181840152602081019050610323565b60008484015250505050565b600061035582610315565b61035f8185610285565b935061036f818560208601610320565b610378816102a5565b840191505092915050565b6000602082019050818103600083015261039d818461034a565b90509291505056fea264697066735822122077be5035a9e631696be3b4da76736b53f1dd04cb1bb2e6bf7bc9ddfa17aaf94f64736f6c63430008100033",
  "linkReferences": {},
  "deployedLinkReferences": {}
}